{
  "address": "0x060E907C1B1A886122FDA920561B187E005D44B0",
  "abi": [
    {
      "anonymous": false,
      "inputs": [
        {
          "indexed": false,
          "internalType": "address",
          "name": "sender",
          "type": "address"
        },
        {
          "indexed": false,
          "internalType": "address",
          "name": "oldAdmin",
          "type": "address"
        },
        {
          "indexed": false,
          "internalType": "address",
          "name": "admin",
          "type": "address"
        }
      ],
      "name": "AdminUpdated",
      "type": "event"
    },
    {
      "anonymous": false,
      "inputs": [
        {
          "indexed": false,
          "internalType": "address",
          "name": "account",
          "type": "address"
        }
      ],
      "name": "Paused",
      "type": "event"
    },
    {
      "anonymous": false,
      "inputs": [
        {
          "indexed": false,
          "internalType": "address",
          "name": "sender",
          "type": "address"
        },
        {
          "indexed": false,
          "internalType": "address",
          "name": "oldPauser",
          "type": "address"
        },
        {
          "indexed": false,
          "internalType": "address",
          "name": "pauser",
          "type": "address"
        }
      ],
      "name": "PauserUpdated",
      "type": "event"
    },
    {
      "anonymous": false,
      "inputs": [
        {
          "indexed": false,
          "internalType": "address",
          "name": "account",
          "type": "address"
        }
      ],
      "name": "Unpaused",
      "type": "event"
    },
    {
      "inputs": [
        {
          "internalType": "uint16",
          "name": "",
          "type": "uint16"
        }
      ],
      "name": "adapters",
      "outputs": [
        {
          "internalType": "address",
          "name": "",
          "type": "address"
        }
      ],
      "stateMutability": "view",
      "type": "function"
    },
    {
      "inputs": [],
      "name": "admin",
      "outputs": [
        {
          "internalType": "address",
          "name": "",
          "type": "address"
        }
      ],
      "stateMutability": "view",
      "type": "function"
    },
    {
      "inputs": [
        {
          "internalType": "address",
          "name": "caller_",
          "type": "address"
        }
      ],
      "name": "allow",
      "outputs": [],
      "stateMutability": "nonpayable",
      "type": "function"
    },
    {
      "inputs": [
        {
          "internalType": "address",
          "name": "",
          "type": "address"
        }
      ],
      "name": "allowance",
      "outputs": [
        {
          "internalType": "bool",
          "name": "",
          "type": "bool"
        }
      ],
      "stateMutability": "view",
      "type": "function"
    },
    {
      "inputs": [
        {
          "internalType": "address",
          "name": "caller_",
          "type": "address"
        }
      ],
      "name": "disallow",
      "outputs": [],
      "stateMutability": "nonpayable",
      "type": "function"
    },
    {
      "inputs": [
        {
          "internalType": "address",
          "name": "admin_",
          "type": "address"
        }
      ],
      "name": "init",
      "outputs": [],
      "stateMutability": "nonpayable",
      "type": "function"
    },
    {
      "inputs": [],
      "name": "isPaused",
      "outputs": [
        {
          "internalType": "bool",
          "name": "",
          "type": "bool"
        }
      ],
      "stateMutability": "view",
      "type": "function"
    },
    {
      "inputs": [
        {
          "internalType": "uint16",
          "name": "executionChainId_",
          "type": "uint16"
        },
        {
          "internalType": "string",
          "name": "token_",
          "type": "string"
        },
        {
          "internalType": "uint256",
          "name": "amount_",
          "type": "uint256"
        },
        {
          "internalType": "string",
          "name": "recipient_",
          "type": "string"
        },
        {
          "internalType": "uint256",
          "name": "gaslessClaimReward_",
          "type": "uint256"
        },
        {
          "internalType": "string",
          "name": "referrer_",
          "type": "string"
        },
        {
          "internalType": "uint256",
          "name": "referrerFee_",
          "type": "uint256"
        }
      ],
      "name": "mintTokens",
      "outputs": [],
      "stateMutability": "nonpayable",
      "type": "function"
    },
    {
      "inputs": [],
      "name": "pause",
      "outputs": [],
      "stateMutability": "nonpayable",
      "type": "function"
    },
    {
      "inputs": [],
      "name": "pauser",
      "outputs": [
        {
          "internalType": "address",
          "name": "",
          "type": "address"
        }
      ],
      "stateMutability": "view",
      "type": "function"
    },
    {
      "inputs": [
        {
          "internalType": "uint16",
          "name": "executionChainId_",
          "type": "uint16"
        },
        {
          "internalType": "address",
          "name": "adapter_",
          "type": "address"
        }
      ],
      "name": "setAdapter",
      "outputs": [],
      "stateMutability": "nonpayable",
      "type": "function"
    },
    {
      "inputs": [],
      "name": "unpause",
      "outputs": [],
      "stateMutability": "nonpayable",
      "type": "function"
    },
    {
      "inputs": [
        {
          "internalType": "address",
          "name": "admin_",
          "type": "address"
        }
      ],
      "name": "updateAdmin",
      "outputs": [],
      "stateMutability": "nonpayable",
      "type": "function"
    },
    {
      "inputs": [
        {
          "internalType": "address",
          "name": "pauser_",
          "type": "address"
        }
      ],
      "name": "updatePauser",
      "outputs": [],
      "stateMutability": "nonpayable",
      "type": "function"
    }
  ],
  "transactionHash": "0xd1fe4d47242c8ca35fdf1639e513cb0f26334b6d1445bc0de8364842ca66840a",
  "args": [],
  "numDeployments": 1,
  "solcInputHash": "ff568be721792780e53bf26444a97103",
  "bytecode": "0x608060405234801561001057600080fd5b506002805461ff00191690556111228061002b6000396000f3fe608060405234801561001057600080fd5b50600436106100ea5760003560e01c8063a9ed9cb81161008c578063e2f273bd11610066578063e2f273bd14610218578063f3f8db331461022b578063f851a4401461023e578063ff9913e81461025e57600080fd5b8063a9ed9cb8146101bd578063b187bd26146101d0578063bb629a48146101e257600080fd5b8063554bab3c116100c8578063554bab3c146101445780636edbcc19146101575780638456cb591461016a5780639fd0506d1461017257600080fd5b806319ab453c146100ef5780633e5beab9146101045780633f4ba83a1461013c575b600080fd5b6101026100fd366004610ea4565b610271565b005b610127610112366004610ea4565b60016020526000908152604090205460ff1681565b60405190151581526020015b60405180910390f35b6101026103fe565b610102610152366004610ea4565b610554565b610102610165366004610ed8565b6106fe565b6101026107d8565b6002546101989062010000900473ffffffffffffffffffffffffffffffffffffffff1681565b60405173ffffffffffffffffffffffffffffffffffffffff9091168152602001610133565b6101026101cb366004610ea4565b61092d565b60025461012790610100900460ff1681565b6101986101f0366004610f0b565b60036020526000908152604090205473ffffffffffffffffffffffffffffffffffffffff1681565b610102610226366004610ea4565b6109fa565b610102610239366004610f6f565b610b98565b6000546101989073ffffffffffffffffffffffffffffffffffffffff1681565b61010261026c366004610ea4565b610da8565b60025460ff16156102e3576040517f08c379a000000000000000000000000000000000000000000000000000000000815260206004820152601360248201527f616c726561647920696e697469616c697a65640000000000000000000000000060448201526064015b60405180910390fd5b73ffffffffffffffffffffffffffffffffffffffff8116610360576040517f08c379a000000000000000000000000000000000000000000000000000000000815260206004820152600c60248201527f7a65726f2061646472657373000000000000000000000000000000000000000060448201526064016102da565b600080547fffffffffffffffffffffffff00000000000000000000000000000000000000001673ffffffffffffffffffffffffffffffffffffffff929092169182179055600280547fffffffffffffffffffff0000000000000000000000000000000000000000ff0016620100009092027fffffffffffffffffffffffffffffffffffffffffffffffffffffffffffffff0016919091176001179055565b600254610100900460ff1661046f576040517f08c379a000000000000000000000000000000000000000000000000000000000815260206004820152600a60248201527f6e6f74207061757365640000000000000000000000000000000000000000000060448201526064016102da565b60025462010000900473ffffffffffffffffffffffffffffffffffffffff1633146104f6576040517f08c379a000000000000000000000000000000000000000000000000000000000815260206004820152600b60248201527f6f6e6c792070617573657200000000000000000000000000000000000000000060448201526064016102da565b600280547fffffffffffffffffffffffffffffffffffffffffffffffffffffffffffff00ff1690556040513381527f5db9ee0a495bf2e6ff9c91a7834c1ba4fdd244a5e8aa4e537bd38aeae4b073aa906020015b60405180910390a1565b60005473ffffffffffffffffffffffffffffffffffffffff1633146105d5576040517f08c379a000000000000000000000000000000000000000000000000000000000815260206004820152600a60248201527f6f6e6c792061646d696e0000000000000000000000000000000000000000000060448201526064016102da565b73ffffffffffffffffffffffffffffffffffffffff8116610652576040517f08c379a000000000000000000000000000000000000000000000000000000000815260206004820152600c60248201527f7a65726f2061646472657373000000000000000000000000000000000000000060448201526064016102da565b6002546040805133815273ffffffffffffffffffffffffffffffffffffffff620100009093048316602082015291831682820152517f9b3d82621a55ae56941a49b01b3111acf42e49f89b2af1a6dea8fb9886d3520c9181900360600190a16002805473ffffffffffffffffffffffffffffffffffffffff90921662010000027fffffffffffffffffffff0000000000000000000000000000000000000000ffff909216919091179055565b60005473ffffffffffffffffffffffffffffffffffffffff16331461077f576040517f08c379a000000000000000000000000000000000000000000000000000000000815260206004820152600a60248201527f6f6e6c792061646d696e0000000000000000000000000000000000000000000060448201526064016102da565b61ffff91909116600090815260036020526040902080547fffffffffffffffffffffffff00000000000000000000000000000000000000001673ffffffffffffffffffffffffffffffffffffffff909216919091179055565b600254610100900460ff161561084a576040517f08c379a000000000000000000000000000000000000000000000000000000000815260206004820152600660248201527f706175736564000000000000000000000000000000000000000000000000000060448201526064016102da565b60025462010000900473ffffffffffffffffffffffffffffffffffffffff1633146108d1576040517f08c379a000000000000000000000000000000000000000000000000000000000815260206004820152600b60248201527f6f6e6c792070617573657200000000000000000000000000000000000000000060448201526064016102da565b600280547fffffffffffffffffffffffffffffffffffffffffffffffffffffffffffff00ff166101001790556040513381527f62e78cea01bee320cd4e420270b5ea74000d11b0c9f74754ebdbfc544b05a2589060200161054a565b60005473ffffffffffffffffffffffffffffffffffffffff1633146109ae576040517f08c379a000000000000000000000000000000000000000000000000000000000815260206004820152600a60248201527f6f6e6c792061646d696e0000000000000000000000000000000000000000000060448201526064016102da565b73ffffffffffffffffffffffffffffffffffffffff16600090815260016020526040902080547fffffffffffffffffffffffffffffffffffffffffffffffffffffffffffffff00169055565b60005473ffffffffffffffffffffffffffffffffffffffff163314610a7b576040517f08c379a000000000000000000000000000000000000000000000000000000000815260206004820152600a60248201527f6f6e6c792061646d696e0000000000000000000000000000000000000000000060448201526064016102da565b73ffffffffffffffffffffffffffffffffffffffff8116610af8576040517f08c379a000000000000000000000000000000000000000000000000000000000815260206004820152600c60248201527f7a65726f2061646472657373000000000000000000000000000000000000000060448201526064016102da565b6000546040805133815273ffffffffffffffffffffffffffffffffffffffff928316602082015291831682820152517f9f6130d220a6021d90d78c7ed17b7cfb79f530974405b174fef75f671205513c9181900360600190a1600080547fffffffffffffffffffffffff00000000000000000000000000000000000000001673ffffffffffffffffffffffffffffffffffffffff92909216919091179055565b60025460ff16610c04576040517f08c379a000000000000000000000000000000000000000000000000000000000815260206004820152600f60248201527f6e6f7420696e697469616c697a6564000000000000000000000000000000000060448201526064016102da565b600254610100900460ff1615610c76576040517f08c379a000000000000000000000000000000000000000000000000000000000815260206004820152600660248201527f706175736564000000000000000000000000000000000000000000000000000060448201526064016102da565b3360008181526001602052604090205460ff16610cef576040517f08c379a000000000000000000000000000000000000000000000000000000000815260206004820152600b60248201527f6e6f7420616c6c6f77656400000000000000000000000000000000000000000060448201526064016102da565b61ffff8b16600090815260036020526040908190205490517ff3f8db3300000000000000000000000000000000000000000000000000000000815273ffffffffffffffffffffffffffffffffffffffff9091169063f3f8db3390610d69908e908e908e908e908e908e908e908e908e908e90600401611082565b600060405180830381600087803b158015610d8357600080fd5b505af1158015610d97573d6000803e3d6000fd5b505050505050505050505050505050565b60005473ffffffffffffffffffffffffffffffffffffffff163314610e29576040517f08c379a000000000000000000000000000000000000000000000000000000000815260206004820152600a60248201527f6f6e6c792061646d696e0000000000000000000000000000000000000000000060448201526064016102da565b73ffffffffffffffffffffffffffffffffffffffff16600090815260016020819052604090912080547fffffffffffffffffffffffffffffffffffffffffffffffffffffffffffffff00169091179055565b803573ffffffffffffffffffffffffffffffffffffffff81168114610e9f57600080fd5b919050565b600060208284031215610eb657600080fd5b610ebf82610e7b565b9392505050565b803561ffff81168114610e9f57600080fd5b60008060408385031215610eeb57600080fd5b610ef483610ec6565b9150610f0260208401610e7b565b90509250929050565b600060208284031215610f1d57600080fd5b610ebf82610ec6565b60008083601f840112610f3857600080fd5b50813567ffffffffffffffff811115610f5057600080fd5b602083019150836020828501011115610f6857600080fd5b9250929050565b60008060008060008060008060008060e08b8d031215610f8e57600080fd5b610f978b610ec6565b995060208b013567ffffffffffffffff80821115610fb457600080fd5b610fc08e838f01610f26565b909b50995060408d0135985060608d0135915080821115610fe057600080fd5b610fec8e838f01610f26565b909850965060808d0135955060a08d013591508082111561100c57600080fd5b506110198d828e01610f26565b9150809450508092505060c08b013590509295989b9194979a5092959850565b8183528181602085013750600060208284010152600060207fffffffffffffffffffffffffffffffffffffffffffffffffffffffffffffffe0601f840116840101905092915050565b61ffff8b16815260e0602082015260006110a060e083018b8d611039565b89604084015282810360608401526110b981898b611039565b905086608084015282810360a08401526110d4818688611039565b9150508260c08301529b9a505050505050505050505056fea2646970667358221220ca6557f22facc4e5e39bbaa340ee4a3a768e6cb49ce06308aca11aeef806d47464736f6c63430008120033",
  "devdoc": {
    "kind": "dev",
    "methods": {},
    "version": 1
  },
  "userdoc": {
    "kind": "user",
    "methods": {},
    "version": 1
  },
  "storageLayout": {
    "storage": [
      {
        "astId": 11,
        "contract": "contracts/bridge/mint/MintRootAdapter.sol:MintRootAdapter",
        "label": "admin",
        "offset": 0,
        "slot": "0",
        "type": "t_address"
      },
      {
        "astId": 62,
        "contract": "contracts/bridge/mint/MintRootAdapter.sol:MintRootAdapter",
        "label": "allowance",
        "offset": 0,
        "slot": "1",
        "type": "t_mapping(t_address,t_bool)"
      },
      {
        "astId": 108,
        "contract": "contracts/bridge/mint/MintRootAdapter.sol:MintRootAdapter",
        "label": "isInited",
        "offset": 0,
        "slot": "2",
        "type": "t_bool"
      },
      {
        "astId": 934,
        "contract": "contracts/bridge/mint/MintRootAdapter.sol:MintRootAdapter",
        "label": "isPaused",
        "offset": 1,
        "slot": "2",
        "type": "t_bool"
      },
      {
        "astId": 936,
        "contract": "contracts/bridge/mint/MintRootAdapter.sol:MintRootAdapter",
        "label": "pauser",
        "offset": 2,
        "slot": "2",
        "type": "t_address"
      },
      {
        "astId": 1838,
        "contract": "contracts/bridge/mint/MintRootAdapter.sol:MintRootAdapter",
        "label": "adapters",
        "offset": 0,
        "slot": "3",
        "type": "t_mapping(t_uint16,t_address)"
      }
    ],
    "types": {
      "t_address": {
        "encoding": "inplace",
        "label": "address",
        "numberOfBytes": "20"
      },
      "t_bool": {
        "encoding": "inplace",
        "label": "bool",
        "numberOfBytes": "1"
      },
      "t_mapping(t_address,t_bool)": {
        "encoding": "mapping",
        "key": "t_address",
        "label": "mapping(address => bool)",
        "numberOfBytes": "32",
        "value": "t_bool"
      },
      "t_mapping(t_uint16,t_address)": {
        "encoding": "mapping",
        "key": "t_uint16",
        "label": "mapping(uint16 => address)",
        "numberOfBytes": "32",
        "value": "t_address"
      },
      "t_uint16": {
        "encoding": "inplace",
        "label": "uint16",
        "numberOfBytes": "2"
      }
    }
  }
}