{
  "address": "0xcdeFA74324e542769541420a7e9212C497bF87be",
  "abi": [
    {
      "anonymous": false,
      "inputs": [
        {
          "indexed": true,
          "internalType": "address",
          "name": "sender",
          "type": "address"
        },
        {
          "indexed": true,
          "internalType": "uint256",
          "name": "txId",
          "type": "uint256"
        }
      ],
      "name": "Confirmation",
      "type": "event"
    },
    {
      "anonymous": false,
      "inputs": [
        {
          "indexed": true,
          "internalType": "uint256",
          "name": "txId",
          "type": "uint256"
        },
        {
          "indexed": false,
          "internalType": "address",
          "name": "caller",
          "type": "address"
        }
      ],
      "name": "Execution",
      "type": "event"
    },
    {
      "anonymous": false,
      "inputs": [
        {
          "indexed": true,
          "internalType": "address",
          "name": "owner",
          "type": "address"
        }
      ],
      "name": "OwnerAddition",
      "type": "event"
    },
    {
      "anonymous": false,
      "inputs": [
        {
          "indexed": true,
          "internalType": "address",
          "name": "owner",
          "type": "address"
        }
      ],
      "name": "OwnerRemoval",
      "type": "event"
    },
    {
      "anonymous": false,
      "inputs": [
        {
          "indexed": false,
          "internalType": "uint128",
          "name": "quorum",
          "type": "uint128"
        }
      ],
      "name": "QuorumChange",
      "type": "event"
    },
    {
      "anonymous": false,
      "inputs": [
        {
          "indexed": true,
          "internalType": "address",
          "name": "sender",
          "type": "address"
        },
        {
          "indexed": true,
          "internalType": "uint256",
          "name": "txId",
          "type": "uint256"
        }
      ],
      "name": "Revocation",
      "type": "event"
    },
    {
      "anonymous": false,
      "inputs": [
        {
          "indexed": true,
          "internalType": "uint256",
          "name": "txId",
          "type": "uint256"
        }
      ],
      "name": "Submission",
      "type": "event"
    },
    {
      "inputs": [
        {
          "internalType": "address",
          "name": "owner_",
          "type": "address"
        }
      ],
      "name": "addOwner",
      "outputs": [],
      "stateMutability": "nonpayable",
      "type": "function"
    },
    {
      "inputs": [
        {
          "internalType": "uint256",
          "name": "txId_",
          "type": "uint256"
        }
      ],
      "name": "confirmTransaction",
      "outputs": [],
      "stateMutability": "nonpayable",
      "type": "function"
    },
    {
      "inputs": [
        {
          "internalType": "uint256",
          "name": "",
          "type": "uint256"
        },
        {
          "internalType": "address",
          "name": "",
          "type": "address"
        }
      ],
      "name": "confirms",
      "outputs": [
        {
          "internalType": "bool",
          "name": "",
          "type": "bool"
        }
      ],
      "stateMutability": "view",
      "type": "function"
    },
    {
      "inputs": [
        {
          "internalType": "uint256",
          "name": "txId_",
          "type": "uint256"
        }
      ],
      "name": "executeTransaction",
      "outputs": [
        {
          "internalType": "bytes",
          "name": "",
          "type": "bytes"
        }
      ],
      "stateMutability": "nonpayable",
      "type": "function"
    },
    {
      "inputs": [
        {
          "internalType": "uint256",
          "name": "txId_",
          "type": "uint256"
        }
      ],
      "name": "getConfirmations",
      "outputs": [
        {
          "internalType": "address[]",
          "name": "confirms_",
          "type": "address[]"
        }
      ],
      "stateMutability": "view",
      "type": "function"
    },
    {
      "inputs": [
        {
          "internalType": "uint256",
          "name": "txId_",
          "type": "uint256"
        }
      ],
      "name": "getConfirmationsCount",
      "outputs": [
        {
          "internalType": "uint256",
          "name": "count",
          "type": "uint256"
        }
      ],
      "stateMutability": "view",
      "type": "function"
    },
    {
      "inputs": [
        {
          "internalType": "address[]",
          "name": "owners_",
          "type": "address[]"
        },
        {
          "internalType": "uint128",
          "name": "quorum_",
          "type": "uint128"
        },
        {
          "internalType": "uint128",
          "name": "ttl_",
          "type": "uint128"
        }
      ],
      "name": "init",
      "outputs": [],
      "stateMutability": "nonpayable",
      "type": "function"
    },
    {
      "inputs": [
        {
          "internalType": "uint256",
          "name": "txId_",
          "type": "uint256"
        }
      ],
      "name": "isConfirmed",
      "outputs": [
        {
          "internalType": "bool",
          "name": "",
          "type": "bool"
        }
      ],
      "stateMutability": "view",
      "type": "function"
    },
    {
      "inputs": [
        {
          "internalType": "address",
          "name": "",
          "type": "address"
        }
      ],
      "name": "isOwner",
      "outputs": [
        {
          "internalType": "bool",
          "name": "",
          "type": "bool"
        }
      ],
      "stateMutability": "view",
      "type": "function"
    },
    {
      "inputs": [
        {
          "internalType": "uint256",
          "name": "",
          "type": "uint256"
        }
      ],
      "name": "owners",
      "outputs": [
        {
          "internalType": "address",
          "name": "",
          "type": "address"
        }
      ],
      "stateMutability": "view",
      "type": "function"
    },
    {
      "inputs": [],
      "name": "quorum",
      "outputs": [
        {
          "internalType": "uint128",
          "name": "",
          "type": "uint128"
        }
      ],
      "stateMutability": "view",
      "type": "function"
    },
    {
      "inputs": [
        {
          "internalType": "address",
          "name": "owner_",
          "type": "address"
        }
      ],
      "name": "removeOwner",
      "outputs": [],
      "stateMutability": "nonpayable",
      "type": "function"
    },
    {
      "inputs": [
        {
          "internalType": "uint256",
          "name": "txId_",
          "type": "uint256"
        }
      ],
      "name": "revokeConfirmation",
      "outputs": [],
      "stateMutability": "nonpayable",
      "type": "function"
    },
    {
      "inputs": [
        {
          "internalType": "uint128",
          "name": "quorum_",
          "type": "uint128"
        }
      ],
      "name": "setQuorum",
      "outputs": [],
      "stateMutability": "nonpayable",
      "type": "function"
    },
    {
      "inputs": [
        {
          "internalType": "address",
          "name": "dst_",
          "type": "address"
        },
        {
          "internalType": "uint256",
          "name": "value_",
          "type": "uint256"
        },
        {
          "internalType": "bytes",
          "name": "calldata_",
          "type": "bytes"
        }
      ],
      "name": "submitTransaction",
      "outputs": [
        {
          "internalType": "uint256",
          "name": "txId",
          "type": "uint256"
        }
      ],
      "stateMutability": "nonpayable",
      "type": "function"
    },
    {
      "inputs": [],
      "name": "ttl",
      "outputs": [
        {
          "internalType": "uint128",
          "name": "",
          "type": "uint128"
        }
      ],
      "stateMutability": "view",
      "type": "function"
    },
    {
      "inputs": [
        {
          "internalType": "uint256",
          "name": "",
          "type": "uint256"
        }
      ],
      "name": "txs",
      "outputs": [
        {
          "internalType": "address",
          "name": "dst",
          "type": "address"
        },
        {
          "internalType": "uint256",
          "name": "value",
          "type": "uint256"
        },
        {
          "internalType": "bytes",
          "name": "data",
          "type": "bytes"
        },
        {
          "internalType": "bool",
          "name": "isExecuted",
          "type": "bool"
        },
        {
          "internalType": "uint256",
          "name": "blockNumber",
          "type": "uint256"
        }
      ],
      "stateMutability": "view",
      "type": "function"
    },
    {
      "inputs": [],
      "name": "txsCount",
      "outputs": [
        {
          "internalType": "uint256",
          "name": "",
          "type": "uint256"
        }
      ],
      "stateMutability": "view",
      "type": "function"
    },
    {
      "stateMutability": "payable",
      "type": "receive"
    }
  ],
  "transactionHash": "0xe7903a20f6f86c566c07826cbecd9007fee90aa001eecadffd7f349ee115af02",
  "args": [],
  "numDeployments": 1,
  "solcInputHash": "d72b067d460c1af527b6618ec93e858f",
  "bytecode": "0x608060405234801561001057600080fd5b50611aa2806100206000396000f3fe60806040526004361061010d5760003560e01c80635ee05c3d11610095578063bce800e511610064578063bce800e514610341578063c01a8c8414610361578063c642747414610381578063ee22610b146103a1578063f5715d56146103ce57600080fd5b80635ee05c3d146102b05780637065cb48146102d4578063784547a7146102f4578063b5dc40c31461031457600080fd5b80632ab6131e116100dc5780632ab6131e146101d55780632f54bf6e146101f55780632f668165146102355780634e8b1dd514610255578063546f40301461027557600080fd5b8063025e7c27146101195780631703a01814610156578063173825d91461019357806320ea8d86146101b557600080fd5b3661011457005b600080fd5b34801561012557600080fd5b50610139610134366004611457565b6103ff565b6040516001600160a01b0390911681526020015b60405180910390f35b34801561016257600080fd5b5060005461017b9061010090046001600160801b031681565b6040516001600160801b03909116815260200161014d565b34801561019f57600080fd5b506101b36101ae36600461148c565b610429565b005b3480156101c157600080fd5b506101b36101d0366004611457565b61061e565b3480156101e157600080fd5b506101b36101f03660046114db565b61074f565b34801561020157600080fd5b5061022561021036600461148c565b60056020526000908152604090205460ff1681565b604051901515815260200161014d565b34801561024157600080fd5b506101b36102503660046115c2565b61093a565b34801561026157600080fd5b5060015461017b906001600160801b031681565b34801561028157600080fd5b506102256102903660046115dd565b600460209081526000928352604080842090915290825290205460ff1681565b3480156102bc57600080fd5b506102c660025481565b60405190815260200161014d565b3480156102e057600080fd5b506101b36102ef36600461148c565b610a03565b34801561030057600080fd5b5061022561030f366004611457565b610b85565b34801561032057600080fd5b5061033461032f366004611457565b610c35565b60405161014d9190611609565b34801561034d57600080fd5b506102c661035c366004611457565b610ddc565b34801561036d57600080fd5b506101b361037c366004611457565b610e62565b34801561038d57600080fd5b506102c661039c366004611656565b610f9a565b3480156103ad57600080fd5b506103c16103bc366004611457565b611108565b60405161014d9190611723565b3480156103da57600080fd5b506103ee6103e9366004611457565b611318565b60405161014d959493929190611736565b6006818154811061040f57600080fd5b6000918252602090912001546001600160a01b0316905081565b3330146104515760405162461bcd60e51b815260040161044890611771565b60405180910390fd5b6001600160a01b038116600090815260056020526040902054819060ff1661048b5760405162461bcd60e51b815260040161044890611794565b6001600160a01b0382166000908152600560205260408120805460ff191690555b6006546104bb906001906117ce565b81101561058a57826001600160a01b0316600682815481106104df576104df6117e7565b6000918252602090912001546001600160a01b0316036105785760068054610509906001906117ce565b81548110610519576105196117e7565b600091825260209091200154600680546001600160a01b039092169183908110610545576105456117e7565b9060005260206000200160006101000a8154816001600160a01b0302191690836001600160a01b0316021790555061058a565b80610582816117fd565b9150506104ac565b50600680548061059c5761059c611816565b600082815260208120600019908301810180546001600160a01b0319169055909101909155600654905461010090046001600160801b031611156105e6576006546105e69061093a565b6040516001600160a01b038316907f8001553a916ef2f495d26a907cc54d96ed840d7bda71e73194bf5a9df7a76b9090600090a25050565b3360008181526005602052604090205460ff1661064d5760405162461bcd60e51b815260040161044890611794565b60008281526003602081905260409091200154829060ff16156106a35760405162461bcd60e51b815260206004820152600e60248201526d1d1e081a5cc8195e1958dd5d195960921b6044820152606401610448565b600083815260046020908152604080832033845290915290205460ff166107025760405162461bcd60e51b81526020600482015260136024820152721d1e081a5cc81b9bdd0818dbdb999a5c9b5959606a1b6044820152606401610448565b6000838152600460209081526040808320338085529252808320805460ff191690555185927ff6a317157440607f36269043eb55f1287a5a19ba2216afeab88cd46cbcfb88e991a3505050565b8251826001600160801b031681811115801561076a57508015155b801561077557508115155b6107915760405162461bcd60e51b81526004016104489061182c565b60005460ff16156107da5760405162461bcd60e51b8152602060048201526013602482015272185b1c9958591e481a5b9a5d1a585b1a5e9959606a1b6044820152606401610448565b60005b85518110156108c95760008682815181106107fa576107fa6117e7565b6020026020010151905060006001600160a01b0316816001600160a01b0316036108365760405162461bcd60e51b815260040161044890611854565b6001600160a01b03811660009081526005602052604090205460ff16156108955760405162461bcd60e51b81526020600482015260136024820152721bdddb995c881a5cc8191d5c1b1a58d85d1959606a1b6044820152606401610448565b6001600160a01b03166000908152600560205260409020805460ff19166001179055806108c1816117fd565b9150506107dd565b5084516108dd9060069060208801906113dd565b505060008054600180546fffffffffffffffffffffffffffffffff19166001600160801b0395861617815570ffffffffffffffffffffffffffffffffff19909116610100959094169490940260ff19169290921790921790555050565b3330146109595760405162461bcd60e51b815260040161044890611771565b6006546001600160801b03821681811180159061097557508015155b801561098057508115155b61099c5760405162461bcd60e51b81526004016104489061182c565b6000805470ffffffffffffffffffffffffffffffff0019166101006001600160801b038616908102919091179091556040519081527fa8bbb19a5d07dbd54184c447664a1f5700c7f3eed28089a17894ef992a14c5339060200160405180910390a1505050565b333014610a225760405162461bcd60e51b815260040161044890611771565b600654610a3090600161187a565b60005461010090046001600160801b0316818111801590610a5057508015155b8015610a5b57508115155b610a775760405162461bcd60e51b81526004016104489061182c565b6001600160a01b038316610a9d5760405162461bcd60e51b815260040161044890611854565b6001600160a01b03831660009081526005602052604090205460ff1615610af75760405162461bcd60e51b815260206004820152600e60248201526d37b7363c903737ba1037bbb732b960911b6044820152606401610448565b6001600160a01b038316600081815260056020526040808220805460ff1916600190811790915560068054918201815583527ff652222313e28459528d920b65115c16c04f3efc82aaedc97be59f3f377c0d3f0180546001600160a01b03191684179055517ff39e6e1eb0edcf53c221607b54b00cd28f3196fed0a24994dc308b8f611b682d9190a2505050565b600080805b600654811015610c2b5760008481526004602052604081206006805491929184908110610bb957610bb96117e7565b60009182526020808320909101546001600160a01b0316835282019290925260400190205460ff1615610bf45781610bf08161188d565b9250505b6000546001600160801b03610100909104811690831610610c19575060019392505050565b80610c23816117fd565b915050610b8a565b5060009392505050565b6060600080600060068054905067ffffffffffffffff811115610c5a57610c5a6114ae565b604051908082528060200260200182016040528015610c83578160200160208202803683370190505b5090505b600654831015610d2c57600060068481548110610ca657610ca66117e7565b60009182526020808320909101548883526004825260408084206001600160a01b039092168085529190925291205490915060ff1615610d195780828481518110610cf357610cf36117e7565b6001600160a01b039092166020928302919091019091015282610d15816117fd565b9350505b5082610d24816117fd565b935050610c87565b8167ffffffffffffffff811115610d4557610d456114ae565b604051908082528060200260200182016040528015610d6e578160200160208202803683370190505b509350600092505b81831015610dd457808381518110610d9057610d906117e7565b6020026020010151848481518110610daa57610daa6117e7565b6001600160a01b039092166020928302919091019091015282610dcc816117fd565b935050610d76565b505050919050565b6000805b600654811015610e5c5760008381526004602052604081206006805491929184908110610e0f57610e0f6117e7565b60009182526020808320909101546001600160a01b0316835282019290925260400190205460ff1615610e4a5781610e46816117fd565b9250505b80610e54816117fd565b915050610de0565b50919050565b3360008181526005602052604090205460ff16610e915760405162461bcd60e51b815260040161044890611794565b60008281526004602090815260408083203380855292529091205483919060ff1615610ef15760405162461bcd60e51b815260206004820152600f60248201526e1d1e081a5cc818dbdb999a5c9b5959608a1b6044820152606401610448565b6000848152600360205260409020546001600160a01b0316610f495760405162461bcd60e51b81526020600482015260116024820152701d1e1259081a5cc81a5b98dbdc9c9958dd607a1b6044820152606401610448565b6000848152600460209081526040808320338085529252808320805460ff191660011790555186927f4a504a94899432a9846e1aa406dceb1bcfd538bb839071d49d1e5e23f5be30ef91a350505050565b3360008181526005602052604081205490919060ff16610fcc5760405162461bcd60e51b815260040161044890611794565b6001600160a01b038616610ff25760405162461bcd60e51b815260040161044890611854565b60025491506040518060a00160405280876001600160a01b0316815260200186815260200185858080601f01602080910402602001604051908101604052809392919081815260200183838082843760009201829052509385525050506020808301829052436040938401528582526003815290829020835181546001600160a01b0319166001600160a01b039091161781559083015160018201559082015160028201906110a19082611936565b50606082015160038201805460ff19169115159190911790556080909101516004909101556110d182600161187a565b60025560405182907fc0ba8fe4b176c1714197d43b9cc6bcf797a4a7461c5fe8d0ef6e184ae7601e5190600090a250949350505050565b60008181526003602081905260409091200154606090829060ff16156111615760405162461bcd60e51b815260206004820152600e60248201526d1d1e081a5cc8195e1958dd5d195960921b6044820152606401610448565b61116a83610b85565b6111a95760405162461bcd60e51b815260206004820152601060248201526f1a5cc81b9bdd0818dbdb999a5c9b595960821b6044820152606401610448565b6000838152600360205260409020600154600482015443916111d6916001600160801b039091169061187a565b10156112115760405162461bcd60e51b815260206004820152600a6024820152691d1e081d1bdbc81bdb1960b21b6044820152606401610448565b60038101805460ff1916600117905560405133815284907f5f3b4a218c27439275fbf3f4a6ddbfcadcb7ac0f9758fa209bf2cd41321797559060200160405180910390a28054600182015460405160009283926001600160a01b039091169161127e9060028701906119f6565b60006040518083038185875af1925050503d80600081146112bb576040519150601f19603f3d011682016040523d82523d6000602084013e6112c0565b606091505b509150915081156112d5579350610e5c915050565b8051156112e55780518082602001fd5b60405162461bcd60e51b815260206004820152600860248201526737379032b93937b960c11b6044820152606401610448565b6003602052600090815260409020805460018201546002830180546001600160a01b0390931693919261134a906118b3565b80601f0160208091040260200160405190810160405280929190818152602001828054611376906118b3565b80156113c35780601f10611398576101008083540402835291602001916113c3565b820191906000526020600020905b8154815290600101906020018083116113a657829003601f168201915b505050506003830154600490930154919260ff1691905085565b828054828255906000526020600020908101928215611432579160200282015b8281111561143257825182546001600160a01b0319166001600160a01b039091161782556020909201916001909101906113fd565b5061143e929150611442565b5090565b5b8082111561143e5760008155600101611443565b60006020828403121561146957600080fd5b5035919050565b80356001600160a01b038116811461148757600080fd5b919050565b60006020828403121561149e57600080fd5b6114a782611470565b9392505050565b634e487b7160e01b600052604160045260246000fd5b80356001600160801b038116811461148757600080fd5b6000806000606084860312156114f057600080fd5b833567ffffffffffffffff8082111561150857600080fd5b818601915086601f83011261151c57600080fd5b8135602082821115611530576115306114ae565b8160051b604051601f19603f83011681018181108682111715611555576115556114ae565b60405292835281830193508481018201928a84111561157357600080fd5b948201945b838610156115985761158986611470565b85529482019493820193611578565b97506115a790508882016114c4565b9550505050506115b9604085016114c4565b90509250925092565b6000602082840312156115d457600080fd5b6114a7826114c4565b600080604083850312156115f057600080fd5b8235915061160060208401611470565b90509250929050565b6020808252825182820181905260009190848201906040850190845b8181101561164a5783516001600160a01b031683529284019291840191600101611625565b50909695505050505050565b6000806000806060858703121561166c57600080fd5b61167585611470565b935060208501359250604085013567ffffffffffffffff8082111561169957600080fd5b818701915087601f8301126116ad57600080fd5b8135818111156116bc57600080fd5b8860208285010111156116ce57600080fd5b95989497505060200194505050565b6000815180845260005b81811015611703576020818501810151868301820152016116e7565b506000602082860101526020601f19601f83011685010191505092915050565b6020815260006114a760208301846116dd565b60018060a01b038616815284602082015260a06040820152600061175d60a08301866116dd565b931515606083015250608001529392505050565b60208082526009908201526837b7363c9039b2b63360b91b604082015260600190565b6020808252600a908201526937b7363c9037bbb732b960b11b604082015260600190565b634e487b7160e01b600052601160045260246000fd5b818103818111156117e1576117e16117b8565b92915050565b634e487b7160e01b600052603260045260246000fd5b60006001820161180f5761180f6117b8565b5060010190565b634e487b7160e01b600052603160045260246000fd5b6020808252600e908201526d696e76616c69642071756f72756d60901b604082015260600190565b6020808252600c908201526b7a65726f206164647265737360a01b604082015260600190565b808201808211156117e1576117e16117b8565b60006001600160801b038083168181036118a9576118a96117b8565b6001019392505050565b600181811c908216806118c757607f821691505b602082108103610e5c57634e487b7160e01b600052602260045260246000fd5b601f82111561193157600081815260208120601f850160051c8101602086101561190e5750805b601f850160051c820191505b8181101561192d5782815560010161191a565b5050505b505050565b815167ffffffffffffffff811115611950576119506114ae565b6119648161195e84546118b3565b846118e7565b602080601f83116001811461199957600084156119815750858301515b600019600386901b1c1916600185901b17855561192d565b600085815260208120601f198616915b828110156119c8578886015182559484019460019091019084016119a9565b50858210156119e65787850151600019600388901b60f8161c191681555b5050505050600190811b01905550565b6000808354611a04816118b3565b60018281168015611a1c5760018114611a3157611a60565b60ff1984168752821515830287019450611a60565b8760005260208060002060005b85811015611a575781548a820152908401908201611a3e565b50505082870194505b5092969550505050505056fea2646970667358221220f82512b7f25dcefaf0b3e30acf6e77565d3937ab1e50d2d6799d689afce5413364736f6c63430008120033",
  "devdoc": {
    "kind": "dev",
    "methods": {},
    "version": 1
  },
  "userdoc": {
    "kind": "user",
    "methods": {},
    "version": 1
  },
  "storageLayout": {
    "storage": [
      {
        "astId": 3,
        "contract": "contracts/Multisig.sol:Multisig",
        "label": "isInited",
        "offset": 0,
        "slot": "0",
        "type": "t_bool"
      },
      {
        "astId": 41,
        "contract": "contracts/Multisig.sol:Multisig",
        "label": "quorum",
        "offset": 1,
        "slot": "0",
        "type": "t_uint128"
      },
      {
        "astId": 43,
        "contract": "contracts/Multisig.sol:Multisig",
        "label": "ttl",
        "offset": 0,
        "slot": "1",
        "type": "t_uint128"
      },
      {
        "astId": 45,
        "contract": "contracts/Multisig.sol:Multisig",
        "label": "txsCount",
        "offset": 0,
        "slot": "2",
        "type": "t_uint256"
      },
      {
        "astId": 50,
        "contract": "contracts/Multisig.sol:Multisig",
        "label": "txs",
        "offset": 0,
        "slot": "3",
        "type": "t_mapping(t_uint256,t_struct(Transaction)39_storage)"
      },
      {
        "astId": 56,
        "contract": "contracts/Multisig.sol:Multisig",
        "label": "confirms",
        "offset": 0,
        "slot": "4",
        "type": "t_mapping(t_uint256,t_mapping(t_address,t_bool))"
      },
      {
        "astId": 60,
        "contract": "contracts/Multisig.sol:Multisig",
        "label": "isOwner",
        "offset": 0,
        "slot": "5",
        "type": "t_mapping(t_address,t_bool)"
      },
      {
        "astId": 63,
        "contract": "contracts/Multisig.sol:Multisig",
        "label": "owners",
        "offset": 0,
        "slot": "6",
        "type": "t_array(t_address)dyn_storage"
      }
    ],
    "types": {
      "t_address": {
        "encoding": "inplace",
        "label": "address",
        "numberOfBytes": "20"
      },
      "t_array(t_address)dyn_storage": {
        "base": "t_address",
        "encoding": "dynamic_array",
        "label": "address[]",
        "numberOfBytes": "32"
      },
      "t_bool": {
        "encoding": "inplace",
        "label": "bool",
        "numberOfBytes": "1"
      },
      "t_bytes_storage": {
        "encoding": "bytes",
        "label": "bytes",
        "numberOfBytes": "32"
      },
      "t_mapping(t_address,t_bool)": {
        "encoding": "mapping",
        "key": "t_address",
        "label": "mapping(address => bool)",
        "numberOfBytes": "32",
        "value": "t_bool"
      },
      "t_mapping(t_uint256,t_mapping(t_address,t_bool))": {
        "encoding": "mapping",
        "key": "t_uint256",
        "label": "mapping(uint256 => mapping(address => bool))",
        "numberOfBytes": "32",
        "value": "t_mapping(t_address,t_bool)"
      },
      "t_mapping(t_uint256,t_struct(Transaction)39_storage)": {
        "encoding": "mapping",
        "key": "t_uint256",
        "label": "mapping(uint256 => struct Multisig.Transaction)",
        "numberOfBytes": "32",
        "value": "t_struct(Transaction)39_storage"
      },
      "t_struct(Transaction)39_storage": {
        "encoding": "inplace",
        "label": "struct Multisig.Transaction",
        "members": [
          {
            "astId": 30,
            "contract": "contracts/Multisig.sol:Multisig",
            "label": "dst",
            "offset": 0,
            "slot": "0",
            "type": "t_address"
          },
          {
            "astId": 32,
            "contract": "contracts/Multisig.sol:Multisig",
            "label": "value",
            "offset": 0,
            "slot": "1",
            "type": "t_uint256"
          },
          {
            "astId": 34,
            "contract": "contracts/Multisig.sol:Multisig",
            "label": "data",
            "offset": 0,
            "slot": "2",
            "type": "t_bytes_storage"
          },
          {
            "astId": 36,
            "contract": "contracts/Multisig.sol:Multisig",
            "label": "isExecuted",
            "offset": 0,
            "slot": "3",
            "type": "t_bool"
          },
          {
            "astId": 38,
            "contract": "contracts/Multisig.sol:Multisig",
            "label": "blockNumber",
            "offset": 0,
            "slot": "4",
            "type": "t_uint256"
          }
        ],
        "numberOfBytes": "160"
      },
      "t_uint128": {
        "encoding": "inplace",
        "label": "uint128",
        "numberOfBytes": "16"
      },
      "t_uint256": {
        "encoding": "inplace",
        "label": "uint256",
        "numberOfBytes": "32"
      }
    }
  }
}