{
  "address": "0x858c668839E36Ce14D5b9A9cb86E549bB2B87679",
  "abi": [
    {
      "anonymous": false,
      "inputs": [
        {
          "indexed": true,
          "internalType": "address",
          "name": "admin",
          "type": "address"
        }
      ],
      "name": "AdminAddition",
      "type": "event"
    },
    {
      "anonymous": false,
      "inputs": [
        {
          "indexed": true,
          "internalType": "address",
          "name": "admin",
          "type": "address"
        }
      ],
      "name": "AdminRemoval",
      "type": "event"
    },
    {
      "anonymous": false,
      "inputs": [
        {
          "indexed": true,
          "internalType": "address",
          "name": "sender",
          "type": "address"
        },
        {
          "indexed": true,
          "internalType": "uint256",
          "name": "txId",
          "type": "uint256"
        }
      ],
      "name": "Confirmation",
      "type": "event"
    },
    {
      "anonymous": false,
      "inputs": [
        {
          "indexed": true,
          "internalType": "uint256",
          "name": "txId",
          "type": "uint256"
        },
        {
          "indexed": false,
          "internalType": "address",
          "name": "caller",
          "type": "address"
        }
      ],
      "name": "Execution",
      "type": "event"
    },
    {
      "anonymous": false,
      "inputs": [
        {
          "indexed": false,
          "internalType": "uint128",
          "name": "quorum",
          "type": "uint128"
        }
      ],
      "name": "QuorumChange",
      "type": "event"
    },
    {
      "anonymous": false,
      "inputs": [
        {
          "indexed": true,
          "internalType": "address",
          "name": "sender",
          "type": "address"
        },
        {
          "indexed": true,
          "internalType": "uint256",
          "name": "txId",
          "type": "uint256"
        }
      ],
      "name": "Revocation",
      "type": "event"
    },
    {
      "anonymous": false,
      "inputs": [
        {
          "indexed": true,
          "internalType": "uint256",
          "name": "txId",
          "type": "uint256"
        }
      ],
      "name": "Submission",
      "type": "event"
    },
    {
      "inputs": [
        {
          "internalType": "address",
          "name": "admin_",
          "type": "address"
        }
      ],
      "name": "addAdmin",
      "outputs": [],
      "stateMutability": "nonpayable",
      "type": "function"
    },
    {
      "inputs": [
        {
          "internalType": "uint256",
          "name": "",
          "type": "uint256"
        }
      ],
      "name": "admins",
      "outputs": [
        {
          "internalType": "address",
          "name": "",
          "type": "address"
        }
      ],
      "stateMutability": "view",
      "type": "function"
    },
    {
      "inputs": [
        {
          "internalType": "uint256",
          "name": "txId_",
          "type": "uint256"
        }
      ],
      "name": "confirmTransaction",
      "outputs": [],
      "stateMutability": "nonpayable",
      "type": "function"
    },
    {
      "inputs": [
        {
          "internalType": "uint256",
          "name": "",
          "type": "uint256"
        },
        {
          "internalType": "address",
          "name": "",
          "type": "address"
        }
      ],
      "name": "confirms",
      "outputs": [
        {
          "internalType": "bool",
          "name": "",
          "type": "bool"
        }
      ],
      "stateMutability": "view",
      "type": "function"
    },
    {
      "inputs": [
        {
          "internalType": "uint256",
          "name": "txId_",
          "type": "uint256"
        }
      ],
      "name": "executeTransaction",
      "outputs": [
        {
          "internalType": "bytes",
          "name": "",
          "type": "bytes"
        }
      ],
      "stateMutability": "nonpayable",
      "type": "function"
    },
    {
      "inputs": [
        {
          "internalType": "uint256",
          "name": "txId_",
          "type": "uint256"
        }
      ],
      "name": "getConfirmations",
      "outputs": [
        {
          "internalType": "address[]",
          "name": "confirms_",
          "type": "address[]"
        }
      ],
      "stateMutability": "view",
      "type": "function"
    },
    {
      "inputs": [
        {
          "internalType": "uint256",
          "name": "txId_",
          "type": "uint256"
        }
      ],
      "name": "getConfirmationsCount",
      "outputs": [
        {
          "internalType": "uint256",
          "name": "count",
          "type": "uint256"
        }
      ],
      "stateMutability": "view",
      "type": "function"
    },
    {
      "inputs": [
        {
          "internalType": "address[]",
          "name": "admins_",
          "type": "address[]"
        },
        {
          "internalType": "uint128",
          "name": "quorum_",
          "type": "uint128"
        },
        {
          "internalType": "uint128",
          "name": "ttl_",
          "type": "uint128"
        }
      ],
      "name": "init",
      "outputs": [],
      "stateMutability": "nonpayable",
      "type": "function"
    },
    {
      "inputs": [
        {
          "internalType": "address",
          "name": "",
          "type": "address"
        }
      ],
      "name": "isAdmin",
      "outputs": [
        {
          "internalType": "bool",
          "name": "",
          "type": "bool"
        }
      ],
      "stateMutability": "view",
      "type": "function"
    },
    {
      "inputs": [
        {
          "internalType": "uint256",
          "name": "txId_",
          "type": "uint256"
        }
      ],
      "name": "isConfirmed",
      "outputs": [
        {
          "internalType": "bool",
          "name": "",
          "type": "bool"
        }
      ],
      "stateMutability": "view",
      "type": "function"
    },
    {
      "inputs": [],
      "name": "quorum",
      "outputs": [
        {
          "internalType": "uint128",
          "name": "",
          "type": "uint128"
        }
      ],
      "stateMutability": "view",
      "type": "function"
    },
    {
      "inputs": [
        {
          "internalType": "address",
          "name": "admin_",
          "type": "address"
        }
      ],
      "name": "removeAdmin",
      "outputs": [],
      "stateMutability": "nonpayable",
      "type": "function"
    },
    {
      "inputs": [
        {
          "internalType": "uint256",
          "name": "txId_",
          "type": "uint256"
        }
      ],
      "name": "revokeConfirmation",
      "outputs": [],
      "stateMutability": "nonpayable",
      "type": "function"
    },
    {
      "inputs": [
        {
          "internalType": "uint128",
          "name": "quorum_",
          "type": "uint128"
        }
      ],
      "name": "setQuorum",
      "outputs": [],
      "stateMutability": "nonpayable",
      "type": "function"
    },
    {
      "inputs": [
        {
          "internalType": "address",
          "name": "dst_",
          "type": "address"
        },
        {
          "internalType": "uint256",
          "name": "value_",
          "type": "uint256"
        },
        {
          "internalType": "bytes",
          "name": "calldata_",
          "type": "bytes"
        }
      ],
      "name": "submitTransaction",
      "outputs": [
        {
          "internalType": "uint256",
          "name": "txId",
          "type": "uint256"
        }
      ],
      "stateMutability": "nonpayable",
      "type": "function"
    },
    {
      "inputs": [],
      "name": "ttl",
      "outputs": [
        {
          "internalType": "uint128",
          "name": "",
          "type": "uint128"
        }
      ],
      "stateMutability": "view",
      "type": "function"
    },
    {
      "inputs": [
        {
          "internalType": "uint256",
          "name": "",
          "type": "uint256"
        }
      ],
      "name": "txs",
      "outputs": [
        {
          "internalType": "address",
          "name": "dst",
          "type": "address"
        },
        {
          "internalType": "uint256",
          "name": "value",
          "type": "uint256"
        },
        {
          "internalType": "bytes",
          "name": "data",
          "type": "bytes"
        },
        {
          "internalType": "bool",
          "name": "isExecuted",
          "type": "bool"
        },
        {
          "internalType": "uint256",
          "name": "blockNumber",
          "type": "uint256"
        }
      ],
      "stateMutability": "view",
      "type": "function"
    },
    {
      "inputs": [],
      "name": "txsCount",
      "outputs": [
        {
          "internalType": "uint256",
          "name": "",
          "type": "uint256"
        }
      ],
      "stateMutability": "view",
      "type": "function"
    },
    {
      "stateMutability": "payable",
      "type": "receive"
    }
  ],
  "transactionHash": "0x87a3cfcfb766b1c0fa6b4c7dbb8ac0fb302f75317f7aa7f111395c9fca9cdb22",
  "args": [],
  "numDeployments": 1,
  "solcInputHash": "041a5d54e65a6781c7bb34bf5fca12bd",
  "bytecode": "0x608060405234801561001057600080fd5b506124a2806100206000396000f3fe60806040526004361061012d5760003560e01c80635ee05c3d116100a5578063bce800e511610074578063c642747411610059578063c6427474146103c9578063ee22610b146103e9578063f5715d561461041657600080fd5b8063bce800e514610389578063c01a8c84146103a957600080fd5b80635ee05c3d146102f8578063704802751461031c578063784547a71461033c578063b5dc40c31461035c57600080fd5b806324d7806c116100fc5780632f668165116100e15780632f668165146102745780634e8b1dd514610294578063546f4030146102bd57600080fd5b806324d7806c146102145780632ab6131e1461025457600080fd5b806314bfd6d0146101395780631703a018146101835780631785f53c146101d257806320ea8d86146101f457600080fd5b3661013457005b600080fd5b34801561014557600080fd5b50610159610154366004611d62565b610447565b60405173ffffffffffffffffffffffffffffffffffffffff90911681526020015b60405180910390f35b34801561018f57600080fd5b506000546101b19061010090046fffffffffffffffffffffffffffffffff1681565b6040516fffffffffffffffffffffffffffffffff909116815260200161017a565b3480156101de57600080fd5b506101f26101ed366004611da4565b61047e565b005b34801561020057600080fd5b506101f261020f366004611d62565b6107c8565b34801561022057600080fd5b5061024461022f366004611da4565b60056020526000908152604090205460ff1681565b604051901515815260200161017a565b34801561026057600080fd5b506101f261026f366004611e15565b6109ae565b34801561028057600080fd5b506101f261028f366004611f1a565b610d14565b3480156102a057600080fd5b506001546101b1906fffffffffffffffffffffffffffffffff1681565b3480156102c957600080fd5b506102446102d8366004611f35565b600460209081526000928352604080842090915290825290205460ff1681565b34801561030457600080fd5b5061030e60025481565b60405190815260200161017a565b34801561032857600080fd5b506101f2610337366004611da4565b610e91565b34801561034857600080fd5b50610244610357366004611d62565b611180565b34801561036857600080fd5b5061037c610377366004611d62565b611246565b60405161017a9190611f61565b34801561039557600080fd5b5061030e6103a4366004611d62565b611414565b3480156103b557600080fd5b506101f26103c4366004611d62565b6114a7565b3480156103d557600080fd5b5061030e6103e4366004611fbb565b6116a2565b3480156103f557600080fd5b50610409610404366004611d62565b611901565b60405161017a91906120a6565b34801561042257600080fd5b50610436610431366004611d62565b611bf1565b60405161017a9594939291906120b9565b6006818154811061045757600080fd5b60009182526020909120015473ffffffffffffffffffffffffffffffffffffffff16905081565b3330146104ec576040517f08c379a000000000000000000000000000000000000000000000000000000000815260206004820152600960248201527f6f6e6c792073656c66000000000000000000000000000000000000000000000060448201526064015b60405180910390fd5b73ffffffffffffffffffffffffffffffffffffffff8116600090815260056020526040902054819060ff1661057d576040517f08c379a000000000000000000000000000000000000000000000000000000000815260206004820152600a60248201527f6f6e6c792061646d696e0000000000000000000000000000000000000000000060448201526064016104e3565b73ffffffffffffffffffffffffffffffffffffffff8216600090815260056020526040812080547fffffffffffffffffffffffffffffffffffffffffffffffffffffffffffffff001690555b6006546105d890600190612131565b8110156106e8578273ffffffffffffffffffffffffffffffffffffffff16600682815481106106095761060961214a565b60009182526020909120015473ffffffffffffffffffffffffffffffffffffffff16036106d6576006805461064090600190612131565b815481106106505761065061214a565b6000918252602090912001546006805473ffffffffffffffffffffffffffffffffffffffff90921691839081106106895761068961214a565b9060005260206000200160006101000a81548173ffffffffffffffffffffffffffffffffffffffff021916908373ffffffffffffffffffffffffffffffffffffffff1602179055506106e8565b806106e081612179565b9150506105c9565b5060068054806106fa576106fa6121b1565b6000828152602081207fffffffffffffffffffffffffffffffffffffffffffffffffffffffffffffffff908301810180547fffffffffffffffffffffffff0000000000000000000000000000000000000000169055909101909155600654905461010090046fffffffffffffffffffffffffffffffff1611156107835760065461078390610d14565b60405173ffffffffffffffffffffffffffffffffffffffff8316907f0e92961189001d223b078d8e63d276b573e20c4a4b640c807cd9f74fea32b4d290600090a25050565b3360008181526005602052604090205460ff16610841576040517f08c379a000000000000000000000000000000000000000000000000000000000815260206004820152600a60248201527f6f6e6c792061646d696e0000000000000000000000000000000000000000000060448201526064016104e3565b60008281526003602081905260409091200154829060ff16156108c0576040517f08c379a000000000000000000000000000000000000000000000000000000000815260206004820152600e60248201527f747820697320657865637574656400000000000000000000000000000000000060448201526064016104e3565b600083815260046020908152604080832033845290915290205460ff16610943576040517f08c379a000000000000000000000000000000000000000000000000000000000815260206004820152601360248201527f7478206973206e6f7420636f6e6669726d65640000000000000000000000000060448201526064016104e3565b600083815260046020908152604080832033808552925280832080547fffffffffffffffffffffffffffffffffffffffffffffffffffffffffffffff001690555185927ff6a317157440607f36269043eb55f1287a5a19ba2216afeab88cd46cbcfb88e991a3505050565b8251826fffffffffffffffffffffffffffffffff168181111580156109d257508015155b80156109dd57508115155b610a43576040517f08c379a000000000000000000000000000000000000000000000000000000000815260206004820152600e60248201527f696e76616c69642071756f72756d00000000000000000000000000000000000060448201526064016104e3565b60005460ff1615610ab0576040517f08c379a000000000000000000000000000000000000000000000000000000000815260206004820152601360248201527f616c726561647920696e697469616c697a65640000000000000000000000000060448201526064016104e3565b60005b8551811015610c5f576000868281518110610ad057610ad061214a565b60200260200101519050600073ffffffffffffffffffffffffffffffffffffffff168173ffffffffffffffffffffffffffffffffffffffff1603610b70576040517f08c379a000000000000000000000000000000000000000000000000000000000815260206004820152600c60248201527f7a65726f2061646472657373000000000000000000000000000000000000000060448201526064016104e3565b73ffffffffffffffffffffffffffffffffffffffff811660009081526005602052604090205460ff1615610c00576040517f08c379a000000000000000000000000000000000000000000000000000000000815260206004820152601360248201527f61646d696e206973206475706c6963617465640000000000000000000000000060448201526064016104e3565b73ffffffffffffffffffffffffffffffffffffffff16600090815260056020526040902080547fffffffffffffffffffffffffffffffffffffffffffffffffffffffffffffff0016600117905580610c5781612179565b915050610ab3565b508451610c73906006906020880190611cc3565b505060008054600180547fffffffffffffffffffffffffffffffff00000000000000000000000000000000166fffffffffffffffffffffffffffffffff9586161781557fffffffffffffffffffffffffffffff000000000000000000000000000000000090911661010095909416949094027fffffffffffffffffffffffffffffffffffffffffffffffffffffffffffffff00169290921790921790555050565b333014610d7d576040517f08c379a000000000000000000000000000000000000000000000000000000000815260206004820152600960248201527f6f6e6c792073656c66000000000000000000000000000000000000000000000060448201526064016104e3565b6006546fffffffffffffffffffffffffffffffff8216818111801590610da257508015155b8015610dad57508115155b610e13576040517f08c379a000000000000000000000000000000000000000000000000000000000815260206004820152600e60248201527f696e76616c69642071756f72756d00000000000000000000000000000000000060448201526064016104e3565b600080547fffffffffffffffffffffffffffffff00000000000000000000000000000000ff166101006fffffffffffffffffffffffffffffffff8616908102919091179091556040519081527fa8bbb19a5d07dbd54184c447664a1f5700c7f3eed28089a17894ef992a14c5339060200160405180910390a1505050565b333014610efa576040517f08c379a000000000000000000000000000000000000000000000000000000000815260206004820152600960248201527f6f6e6c792073656c66000000000000000000000000000000000000000000000060448201526064016104e3565b600654610f089060016121e0565b60005461010090046fffffffffffffffffffffffffffffffff16818111801590610f3157508015155b8015610f3c57508115155b610fa2576040517f08c379a000000000000000000000000000000000000000000000000000000000815260206004820152600e60248201527f696e76616c69642071756f72756d00000000000000000000000000000000000060448201526064016104e3565b73ffffffffffffffffffffffffffffffffffffffff831661101f576040517f08c379a000000000000000000000000000000000000000000000000000000000815260206004820152600c60248201527f7a65726f2061646472657373000000000000000000000000000000000000000060448201526064016104e3565b73ffffffffffffffffffffffffffffffffffffffff831660009081526005602052604090205460ff16156110af576040517f08c379a000000000000000000000000000000000000000000000000000000000815260206004820152600e60248201527f6f6e6c79206e6f742061646d696e00000000000000000000000000000000000060448201526064016104e3565b73ffffffffffffffffffffffffffffffffffffffff831660008181526005602052604080822080547fffffffffffffffffffffffffffffffffffffffffffffffffffffffffffffff0016600190811790915560068054918201815583527ff652222313e28459528d920b65115c16c04f3efc82aaedc97be59f3f377c0d3f0180547fffffffffffffffffffffffff00000000000000000000000000000000000000001684179055517f99bdc9c2289ee75b048ff16e32d85a38d1e993ed10e025fba251e978cf10aaf89190a2505050565b600080805b60065481101561123c57600084815260046020526040812060068054919291849081106111b4576111b461214a565b600091825260208083209091015473ffffffffffffffffffffffffffffffffffffffff16835282019290925260400190205460ff16156111fc57816111f8816121f3565b9250505b6000546fffffffffffffffffffffffffffffffff61010090910481169083161061122a575060019392505050565b8061123481612179565b915050611185565b5060009392505050565b6060600080600060068054905067ffffffffffffffff81111561126b5761126b611dc6565b604051908082528060200260200182016040528015611294578160200160208202803683370190505b5090505b600654831015611357576000600684815481106112b7576112b761214a565b600091825260208083209091015488835260048252604080842073ffffffffffffffffffffffffffffffffffffffff9092168085529190925291205490915060ff161561134457808284815181106113115761131161214a565b73ffffffffffffffffffffffffffffffffffffffff909216602092830291909101909101528261134081612179565b9350505b508261134f81612179565b935050611298565b8167ffffffffffffffff81111561137057611370611dc6565b604051908082528060200260200182016040528015611399578160200160208202803683370190505b509350600092505b8183101561140c578083815181106113bb576113bb61214a565b60200260200101518484815181106113d5576113d561214a565b73ffffffffffffffffffffffffffffffffffffffff909216602092830291909101909101528261140481612179565b9350506113a1565b505050919050565b6000805b6006548110156114a157600083815260046020526040812060068054919291849081106114475761144761214a565b600091825260208083209091015473ffffffffffffffffffffffffffffffffffffffff16835282019290925260400190205460ff161561148f578161148b81612179565b9250505b8061149981612179565b915050611418565b50919050565b3360008181526005602052604090205460ff16611520576040517f08c379a000000000000000000000000000000000000000000000000000000000815260206004820152600a60248201527f6f6e6c792061646d696e0000000000000000000000000000000000000000000060448201526064016104e3565b60008281526004602090815260408083203380855292529091205483919060ff16156115a8576040517f08c379a000000000000000000000000000000000000000000000000000000000815260206004820152600f60248201527f747820697320636f6e6669726d6564000000000000000000000000000000000060448201526064016104e3565b60008481526003602052604090205473ffffffffffffffffffffffffffffffffffffffff16611633576040517f08c379a000000000000000000000000000000000000000000000000000000000815260206004820152601160248201527f7478496420697320696e636f727265637400000000000000000000000000000060448201526064016104e3565b600084815260046020908152604080832033808552925280832080547fffffffffffffffffffffffffffffffffffffffffffffffffffffffffffffff001660011790555186927f4a504a94899432a9846e1aa406dceb1bcfd538bb839071d49d1e5e23f5be30ef91a350505050565b3360008181526005602052604081205490919060ff1661171e576040517f08c379a000000000000000000000000000000000000000000000000000000000815260206004820152600a60248201527f6f6e6c792061646d696e0000000000000000000000000000000000000000000060448201526064016104e3565b73ffffffffffffffffffffffffffffffffffffffff861661179b576040517f08c379a000000000000000000000000000000000000000000000000000000000815260206004820152600c60248201527f7a65726f2061646472657373000000000000000000000000000000000000000060448201526064016104e3565b60025491506040518060a001604052808773ffffffffffffffffffffffffffffffffffffffff16815260200186815260200185858080601f01602080910402602001604051908101604052809392919081815260200183838082843760009201829052509385525050506020808301829052436040938401528582526003815290829020835181547fffffffffffffffffffffffff00000000000000000000000000000000000000001673ffffffffffffffffffffffffffffffffffffffff90911617815590830151600182015590820151600282019061187c90826122be565b5060608201516003820180547fffffffffffffffffffffffffffffffffffffffffffffffffffffffffffffff00169115159190911790556080909101516004909101556118ca8260016121e0565b60025560405182907fc0ba8fe4b176c1714197d43b9cc6bcf797a4a7461c5fe8d0ef6e184ae7601e5190600090a250949350505050565b60008181526003602081905260409091200154606090829060ff1615611983576040517f08c379a000000000000000000000000000000000000000000000000000000000815260206004820152600e60248201527f747820697320657865637574656400000000000000000000000000000000000060448201526064016104e3565b61198c83611180565b6119f2576040517f08c379a000000000000000000000000000000000000000000000000000000000815260206004820152601060248201527f6973206e6f7420636f6e6669726d65640000000000000000000000000000000060448201526064016104e3565b600083815260036020526040902060015460048201544391611a28916fffffffffffffffffffffffffffffffff909116906121e0565b1015611a90576040517f08c379a000000000000000000000000000000000000000000000000000000000815260206004820152600a60248201527f747820746f6f206f6c640000000000000000000000000000000000000000000060448201526064016104e3565b6003810180547fffffffffffffffffffffffffffffffffffffffffffffffffffffffffffffff0016600117905560405133815284907f5f3b4a218c27439275fbf3f4a6ddbfcadcb7ac0f9758fa209bf2cd41321797559060200160405180910390a280546001820154604051600092839273ffffffffffffffffffffffffffffffffffffffff90911691611b289060028701906123d8565b60006040518083038185875af1925050503d8060008114611b65576040519150601f19603f3d011682016040523d82523d6000602084013e611b6a565b606091505b50915091508115611b7f5793506114a1915050565b805115611b8f5780518082602001fd5b6040517f08c379a000000000000000000000000000000000000000000000000000000000815260206004820152600860248201527f6e6f206572726f7200000000000000000000000000000000000000000000000060448201526064016104e3565b60036020526000908152604090208054600182015460028301805473ffffffffffffffffffffffffffffffffffffffff909316939192611c3090612222565b80601f0160208091040260200160405190810160405280929190818152602001828054611c5c90612222565b8015611ca95780601f10611c7e57610100808354040283529160200191611ca9565b820191906000526020600020905b815481529060010190602001808311611c8c57829003601f168201915b505050506003830154600490930154919260ff1691905085565b828054828255906000526020600020908101928215611d3d579160200282015b82811115611d3d57825182547fffffffffffffffffffffffff00000000000000000000000000000000000000001673ffffffffffffffffffffffffffffffffffffffff909116178255602090920191600190910190611ce3565b50611d49929150611d4d565b5090565b5b80821115611d495760008155600101611d4e565b600060208284031215611d7457600080fd5b5035919050565b803573ffffffffffffffffffffffffffffffffffffffff81168114611d9f57600080fd5b919050565b600060208284031215611db657600080fd5b611dbf82611d7b565b9392505050565b7f4e487b7100000000000000000000000000000000000000000000000000000000600052604160045260246000fd5b80356fffffffffffffffffffffffffffffffff81168114611d9f57600080fd5b600080600060608486031215611e2a57600080fd5b833567ffffffffffffffff80821115611e4257600080fd5b818601915086601f830112611e5657600080fd5b8135602082821115611e6a57611e6a611dc6565b8160051b6040517fffffffffffffffffffffffffffffffffffffffffffffffffffffffffffffffe0603f83011681018181108682111715611ead57611ead611dc6565b60405292835281830193508481018201928a841115611ecb57600080fd5b948201945b83861015611ef057611ee186611d7b565b85529482019493820193611ed0565b9750611eff9050888201611df5565b955050505050611f1160408501611df5565b90509250925092565b600060208284031215611f2c57600080fd5b611dbf82611df5565b60008060408385031215611f4857600080fd5b82359150611f5860208401611d7b565b90509250929050565b6020808252825182820181905260009190848201906040850190845b81811015611faf57835173ffffffffffffffffffffffffffffffffffffffff1683529284019291840191600101611f7d565b50909695505050505050565b60008060008060608587031215611fd157600080fd5b611fda85611d7b565b935060208501359250604085013567ffffffffffffffff80821115611ffe57600080fd5b818701915087601f83011261201257600080fd5b81358181111561202157600080fd5b88602082850101111561203357600080fd5b95989497505060200194505050565b6000815180845260005b818110156120685760208185018101518683018201520161204c565b5060006020828601015260207fffffffffffffffffffffffffffffffffffffffffffffffffffffffffffffffe0601f83011685010191505092915050565b602081526000611dbf6020830184612042565b73ffffffffffffffffffffffffffffffffffffffff8616815284602082015260a0604082015260006120ee60a0830186612042565b931515606083015250608001529392505050565b7f4e487b7100000000000000000000000000000000000000000000000000000000600052601160045260246000fd5b8181038181111561214457612144612102565b92915050565b7f4e487b7100000000000000000000000000000000000000000000000000000000600052603260045260246000fd5b60007fffffffffffffffffffffffffffffffffffffffffffffffffffffffffffffffff82036121aa576121aa612102565b5060010190565b7f4e487b7100000000000000000000000000000000000000000000000000000000600052603160045260246000fd5b8082018082111561214457612144612102565b60006fffffffffffffffffffffffffffffffff80831681810361221857612218612102565b6001019392505050565b600181811c9082168061223657607f821691505b6020821081036114a1577f4e487b7100000000000000000000000000000000000000000000000000000000600052602260045260246000fd5b601f8211156122b957600081815260208120601f850160051c810160208610156122965750805b601f850160051c820191505b818110156122b5578281556001016122a2565b5050505b505050565b815167ffffffffffffffff8111156122d8576122d8611dc6565b6122ec816122e68454612222565b8461226f565b602080601f83116001811461233f57600084156123095750858301515b7fffffffffffffffffffffffffffffffffffffffffffffffffffffffffffffffff600386901b1c1916600185901b1785556122b5565b6000858152602081207fffffffffffffffffffffffffffffffffffffffffffffffffffffffffffffffe08616915b8281101561238c5788860151825594840194600190910190840161236d565b50858210156123c857878501517fffffffffffffffffffffffffffffffffffffffffffffffffffffffffffffffff600388901b60f8161c191681555b5050505050600190811b01905550565b60008083546123e681612222565b600182811680156123fe576001811461243157612460565b7fffffffffffffffffffffffffffffffffffffffffffffffffffffffffffffff0084168752821515830287019450612460565b8760005260208060002060005b858110156124575781548a82015290840190820161243e565b50505082870194505b5092969550505050505056fea2646970667358221220c616af68363dcbd324f523dd0d867b086495354426d72fe51ad25d9d6306cbd564736f6c63430008120033",
  "devdoc": {
    "kind": "dev",
    "methods": {},
    "version": 1
  },
  "userdoc": {
    "kind": "user",
    "methods": {},
    "version": 1
  },
  "storageLayout": {
    "storage": [
      {
        "astId": 3,
        "contract": "contracts/Multisig.sol:Multisig",
        "label": "isInited",
        "offset": 0,
        "slot": "0",
        "type": "t_bool"
      },
      {
        "astId": 41,
        "contract": "contracts/Multisig.sol:Multisig",
        "label": "quorum",
        "offset": 1,
        "slot": "0",
        "type": "t_uint128"
      },
      {
        "astId": 43,
        "contract": "contracts/Multisig.sol:Multisig",
        "label": "ttl",
        "offset": 0,
        "slot": "1",
        "type": "t_uint128"
      },
      {
        "astId": 45,
        "contract": "contracts/Multisig.sol:Multisig",
        "label": "txsCount",
        "offset": 0,
        "slot": "2",
        "type": "t_uint256"
      },
      {
        "astId": 50,
        "contract": "contracts/Multisig.sol:Multisig",
        "label": "txs",
        "offset": 0,
        "slot": "3",
        "type": "t_mapping(t_uint256,t_struct(Transaction)39_storage)"
      },
      {
        "astId": 56,
        "contract": "contracts/Multisig.sol:Multisig",
        "label": "confirms",
        "offset": 0,
        "slot": "4",
        "type": "t_mapping(t_uint256,t_mapping(t_address,t_bool))"
      },
      {
        "astId": 60,
        "contract": "contracts/Multisig.sol:Multisig",
        "label": "isAdmin",
        "offset": 0,
        "slot": "5",
        "type": "t_mapping(t_address,t_bool)"
      },
      {
        "astId": 63,
        "contract": "contracts/Multisig.sol:Multisig",
        "label": "admins",
        "offset": 0,
        "slot": "6",
        "type": "t_array(t_address)dyn_storage"
      }
    ],
    "types": {
      "t_address": {
        "encoding": "inplace",
        "label": "address",
        "numberOfBytes": "20"
      },
      "t_array(t_address)dyn_storage": {
        "base": "t_address",
        "encoding": "dynamic_array",
        "label": "address[]",
        "numberOfBytes": "32"
      },
      "t_bool": {
        "encoding": "inplace",
        "label": "bool",
        "numberOfBytes": "1"
      },
      "t_bytes_storage": {
        "encoding": "bytes",
        "label": "bytes",
        "numberOfBytes": "32"
      },
      "t_mapping(t_address,t_bool)": {
        "encoding": "mapping",
        "key": "t_address",
        "label": "mapping(address => bool)",
        "numberOfBytes": "32",
        "value": "t_bool"
      },
      "t_mapping(t_uint256,t_mapping(t_address,t_bool))": {
        "encoding": "mapping",
        "key": "t_uint256",
        "label": "mapping(uint256 => mapping(address => bool))",
        "numberOfBytes": "32",
        "value": "t_mapping(t_address,t_bool)"
      },
      "t_mapping(t_uint256,t_struct(Transaction)39_storage)": {
        "encoding": "mapping",
        "key": "t_uint256",
        "label": "mapping(uint256 => struct Multisig.Transaction)",
        "numberOfBytes": "32",
        "value": "t_struct(Transaction)39_storage"
      },
      "t_struct(Transaction)39_storage": {
        "encoding": "inplace",
        "label": "struct Multisig.Transaction",
        "members": [
          {
            "astId": 30,
            "contract": "contracts/Multisig.sol:Multisig",
            "label": "dst",
            "offset": 0,
            "slot": "0",
            "type": "t_address"
          },
          {
            "astId": 32,
            "contract": "contracts/Multisig.sol:Multisig",
            "label": "value",
            "offset": 0,
            "slot": "1",
            "type": "t_uint256"
          },
          {
            "astId": 34,
            "contract": "contracts/Multisig.sol:Multisig",
            "label": "data",
            "offset": 0,
            "slot": "2",
            "type": "t_bytes_storage"
          },
          {
            "astId": 36,
            "contract": "contracts/Multisig.sol:Multisig",
            "label": "isExecuted",
            "offset": 0,
            "slot": "3",
            "type": "t_bool"
          },
          {
            "astId": 38,
            "contract": "contracts/Multisig.sol:Multisig",
            "label": "blockNumber",
            "offset": 0,
            "slot": "4",
            "type": "t_uint256"
          }
        ],
        "numberOfBytes": "160"
      },
      "t_uint128": {
        "encoding": "inplace",
        "label": "uint128",
        "numberOfBytes": "16"
      },
      "t_uint256": {
        "encoding": "inplace",
        "label": "uint256",
        "numberOfBytes": "32"
      }
    }
  }
}